{
  "_format": "hh3-artifact-1",
  "contractName": "Payment",
  "sourceName": "contracts/Payment.sol",
  "abi": [
    {
      "anonymous": false,
      "inputs": [
        {
          "indexed": true,
          "internalType": "address",
          "name": "sender",
          "type": "address"
        },
        {
          "indexed": true,
          "internalType": "address",
          "name": "receiver",
          "type": "address"
        },
        {
          "indexed": false,
          "internalType": "uint256",
          "name": "amount",
          "type": "uint256"
        }
      ],
      "name": "PaymentSent",
      "type": "event"
    },
    {
      "inputs": [
        {
          "internalType": "address payable",
          "name": "receiver",
          "type": "address"
        }
      ],
      "name": "sendPayment",
      "outputs": [],
      "stateMutability": "payable",
      "type": "function"
    }
  ],
  "bytecode": "0x6080604052348015600e575f5ffd5b5061021b8061001c5f395ff3fe60806040526004361061001d575f3560e01c80638a7644a814610021575b5f5ffd5b61003461002f3660046101b8565b610036565b005b5f341161008a5760405162461bcd60e51b815260206004820181905260248201527f416d6f756e74206d7573742062652067726561746572207468616e207a65726f60448201526064015b60405180910390fd5b6001600160a01b0381166100e05760405162461bcd60e51b815260206004820152601860248201527f496e76616c6964207265636569766572206164647265737300000000000000006044820152606401610081565b5f816001600160a01b0316346040515f6040518083038185875af1925050503d805f8114610129576040519150601f19603f3d011682016040523d82523d5f602084013e61012e565b606091505b50509050806101745760405162461bcd60e51b81526020600482015260126024820152712330b4b632b2103a379039b2b7321026a7a760711b6044820152606401610081565b6040513481526001600160a01b0383169033907fd52bd61f7c422d441e024604f4517878fd3305d6acf0fe37baef23ed21af6bc99060200160405180910390a35050565b5f602082840312156101c8575f5ffd5b81356001600160a01b03811681146101de575f5ffd5b939250505056fea2646970667358221220a488c4c78d95dc243d421939f670126c50d2231f45fe0eb1f6edc1489cef209964736f6c634300081c0033",
  "linkReferences": {},
  "deployedLinkReferences": {},
  "immutableReferences": {},
  "inputSourceName": "project/contracts/Payment.sol",
  "buildInfoId": "solc-0_8_28-abe592c48470de95e6580ec342cce6ccc17a839a"
}