{
  "_format": "hh3-artifact-1",
  "contractName": "MockUSDT",
  "sourceName": "contracts/MockUSDT.sol",
  "abi": [
    {
      "inputs": [],
      "stateMutability": "nonpayable",
      "type": "constructor"
    },
    {
      "anonymous": false,
      "inputs": [
        {
          "indexed": true,
          "internalType": "address",
          "name": "owner",
          "type": "address"
        },
        {
          "indexed": true,
          "internalType": "address",
          "name": "spender",
          "type": "address"
        },
        {
          "indexed": false,
          "internalType": "uint256",
          "name": "value",
          "type": "uint256"
        }
      ],
      "name": "Approval",
      "type": "event"
    },
    {
      "anonymous": false,
      "inputs": [
        {
          "indexed": true,
          "internalType": "address",
          "name": "from",
          "type": "address"
        },
        {
          "indexed": true,
          "internalType": "address",
          "name": "to",
          "type": "address"
        },
        {
          "indexed": false,
          "internalType": "uint256",
          "name": "value",
          "type": "uint256"
        }
      ],
      "name": "Transfer",
      "type": "event"
    },
    {
      "inputs": [
        {
          "internalType": "address",
          "name": "",
          "type": "address"
        },
        {
          "internalType": "address",
          "name": "",
          "type": "address"
        }
      ],
      "name": "allowance",
      "outputs": [
        {
          "internalType": "uint256",
          "name": "",
          "type": "uint256"
        }
      ],
      "stateMutability": "view",
      "type": "function"
    },
    {
      "inputs": [
        {
          "internalType": "address",
          "name": "spender",
          "type": "address"
        },
        {
          "internalType": "uint256",
          "name": "amount",
          "type": "uint256"
        }
      ],
      "name": "approve",
      "outputs": [
        {
          "internalType": "bool",
          "name": "",
          "type": "bool"
        }
      ],
      "stateMutability": "nonpayable",
      "type": "function"
    },
    {
      "inputs": [
        {
          "internalType": "address",
          "name": "",
          "type": "address"
        }
      ],
      "name": "balanceOf",
      "outputs": [
        {
          "internalType": "uint256",
          "name": "",
          "type": "uint256"
        }
      ],
      "stateMutability": "view",
      "type": "function"
    },
    {
      "inputs": [],
      "name": "decimals",
      "outputs": [
        {
          "internalType": "uint8",
          "name": "",
          "type": "uint8"
        }
      ],
      "stateMutability": "view",
      "type": "function"
    },
    {
      "inputs": [
        {
          "internalType": "address",
          "name": "to",
          "type": "address"
        },
        {
          "internalType": "uint256",
          "name": "amount",
          "type": "uint256"
        }
      ],
      "name": "mint",
      "outputs": [],
      "stateMutability": "nonpayable",
      "type": "function"
    },
    {
      "inputs": [],
      "name": "name",
      "outputs": [
        {
          "internalType": "string",
          "name": "",
          "type": "string"
        }
      ],
      "stateMutability": "view",
      "type": "function"
    },
    {
      "inputs": [],
      "name": "owner",
      "outputs": [
        {
          "internalType": "address",
          "name": "",
          "type": "address"
        }
      ],
      "stateMutability": "view",
      "type": "function"
    },
    {
      "inputs": [],
      "name": "symbol",
      "outputs": [
        {
          "internalType": "string",
          "name": "",
          "type": "string"
        }
      ],
      "stateMutability": "view",
      "type": "function"
    },
    {
      "inputs": [],
      "name": "totalSupply",
      "outputs": [
        {
          "internalType": "uint256",
          "name": "",
          "type": "uint256"
        }
      ],
      "stateMutability": "view",
      "type": "function"
    },
    {
      "inputs": [
        {
          "internalType": "address",
          "name": "to",
          "type": "address"
        },
        {
          "internalType": "uint256",
          "name": "amount",
          "type": "uint256"
        }
      ],
      "name": "transfer",
      "outputs": [
        {
          "internalType": "bool",
          "name": "",
          "type": "bool"
        }
      ],
      "stateMutability": "nonpayable",
      "type": "function"
    },
    {
      "inputs": [
        {
          "internalType": "address",
          "name": "from",
          "type": "address"
        },
        {
          "internalType": "address",
          "name": "to",
          "type": "address"
        },
        {
          "internalType": "uint256",
          "name": "amount",
          "type": "uint256"
        }
      ],
      "name": "transferFrom",
      "outputs": [
        {
          "internalType": "bool",
          "name": "",
          "type": "bool"
        }
      ],
      "stateMutability": "nonpayable",
      "type": "function"
    }
  ],
  "bytecode": "0x60c0604052600f60809081526e135bd8dac815195d1a195c881554d1608a1b60a0525f9061002d908261018a565b506040805180820190915260048152631554d11560e21b6020820152600190610056908261018a565b506002805460ff1916600617905534801561006f575f5ffd5b50600680546001600160a01b031916331790556002546100939060ff16600a61033d565b6100a190633b9aca00610352565b6003819055335f81815260046020908152604080832085905551938452919290917fddf252ad1be2c89b69c2b068fc378daa952ba7f163c4a11628f55a4df523b3ef910160405180910390a3610369565b634e487b7160e01b5f52604160045260245ffd5b600181811c9082168061011a57607f821691505b60208210810361013857634e487b7160e01b5f52602260045260245ffd5b50919050565b601f82111561018557805f5260205f20601f840160051c810160208510156101635750805b601f840160051c820191505b81811015610182575f815560010161016f565b50505b505050565b81516001600160401b038111156101a3576101a36100f2565b6101b7816101b18454610106565b8461013e565b6020601f8211600181146101e9575f83156101d25750848201515b5f19600385901b1c1916600184901b178455610182565b5f84815260208120601f198516915b8281101561021857878501518255602094850194600190920191016101f8565b508482101561023557868401515f19600387901b60f8161c191681555b50505050600190811b01905550565b634e487b7160e01b5f52601160045260245ffd5b6001815b60018411156102935780850481111561027757610277610244565b600184161561028557908102905b60019390931c92800261025c565b935093915050565b5f826102a957506001610337565b816102b557505f610337565b81600181146102cb57600281146102d5576102f1565b6001915050610337565b60ff8411156102e6576102e6610244565b50506001821b610337565b5060208310610133831016604e8410600b8410161715610314575081810a610337565b6103205f198484610258565b805f190482111561033357610333610244565b0290505b92915050565b5f61034b60ff84168361029b565b9392505050565b808202811582820484141761033757610337610244565b6107f4806103765f395ff3fe608060405234801561000f575f5ffd5b50600436106100a6575f3560e01c806340c10f191161006e57806340c10f191461013457806370a08231146101495780638da5cb5b1461016857806395d89b4114610193578063a9059cbb1461019b578063dd62ed3e146101ae575f5ffd5b806306fdde03146100aa578063095ea7b3146100c857806318160ddd146100eb57806323b872dd14610102578063313ce56714610115575b5f5ffd5b6100b26101d8565b6040516100bf9190610649565b60405180910390f35b6100db6100d6366004610699565b610263565b60405190151581526020016100bf565b6100f460035481565b6040519081526020016100bf565b6100db6101103660046106c1565b6102cf565b6002546101229060ff1681565b60405160ff90911681526020016100bf565b610147610142366004610699565b610485565b005b6100f46101573660046106fb565b60046020525f908152604090205481565b60065461017b906001600160a01b031681565b6040516001600160a01b0390911681526020016100bf565b6100b261055b565b6100db6101a9366004610699565b610568565b6100f46101bc36600461071b565b600560209081525f928352604080842090915290825290205481565b5f80546101e49061074c565b80601f01602080910402602001604051908101604052809291908181526020018280546102109061074c565b801561025b5780601f106102325761010080835404028352916020019161025b565b820191905f5260205f20905b81548152906001019060200180831161023e57829003601f168201915b505050505081565b335f8181526005602090815260408083206001600160a01b038716808552925280832085905551919290917f8c5be1e5ebec7d5bd14f71427d1e84f3dd0314c0f7b2291e5b200ac8c7c3b925906102bd9086815260200190565b60405180910390a35060015b92915050565b6001600160a01b0383165f908152600460205260408120548211156103325760405162461bcd60e51b8152602060048201526014602482015273496e73756666696369656e742062616c616e636560601b60448201526064015b60405180910390fd5b6001600160a01b0384165f90815260056020908152604080832033845290915290205482111561039d5760405162461bcd60e51b8152602060048201526016602482015275496e73756666696369656e7420616c6c6f77616e636560501b6044820152606401610329565b6001600160a01b0384165f90815260046020526040812080548492906103c4908490610798565b90915550506001600160a01b0383165f90815260046020526040812080548492906103f09084906107ab565b90915550506001600160a01b0384165f90815260056020908152604080832033845290915281208054849290610427908490610798565b92505081905550826001600160a01b0316846001600160a01b03167fddf252ad1be2c89b69c2b068fc378daa952ba7f163c4a11628f55a4df523b3ef8460405161047391815260200190565b60405180910390a35060019392505050565b6006546001600160a01b031633146104d55760405162461bcd60e51b815260206004820152601360248201527213db9b1e481bdddb995c8818d85b881b5a5b9d606a1b6044820152606401610329565b8060035f8282546104e691906107ab565b90915550506001600160a01b0382165f90815260046020526040812080548392906105129084906107ab565b90915550506040518181526001600160a01b038316905f907fddf252ad1be2c89b69c2b068fc378daa952ba7f163c4a11628f55a4df523b3ef9060200160405180910390a35050565b600180546101e49061074c565b335f908152600460205260408120548211156105bd5760405162461bcd60e51b8152602060048201526014602482015273496e73756666696369656e742062616c616e636560601b6044820152606401610329565b335f90815260046020526040812080548492906105db908490610798565b90915550506001600160a01b0383165f90815260046020526040812080548492906106079084906107ab565b90915550506040518281526001600160a01b0384169033907fddf252ad1be2c89b69c2b068fc378daa952ba7f163c4a11628f55a4df523b3ef906020016102bd565b602081525f82518060208401528060208501604085015e5f604082850101526040601f19601f83011684010191505092915050565b80356001600160a01b0381168114610694575f5ffd5b919050565b5f5f604083850312156106aa575f5ffd5b6106b38361067e565b946020939093013593505050565b5f5f5f606084860312156106d3575f5ffd5b6106dc8461067e565b92506106ea6020850161067e565b929592945050506040919091013590565b5f6020828403121561070b575f5ffd5b6107148261067e565b9392505050565b5f5f6040838503121561072c575f5ffd5b6107358361067e565b91506107436020840161067e565b90509250929050565b600181811c9082168061076057607f821691505b60208210810361077e57634e487b7160e01b5f52602260045260245ffd5b50919050565b634e487b7160e01b5f52601160045260245ffd5b818103818111156102c9576102c9610784565b808201808211156102c9576102c961078456fea2646970667358221220a6253e1309cac836e123fb37284b5cc82c28b874a4d925637482e2f17d1ed91364736f6c634300081c0033",
  "linkReferences": {},
  "deployedLinkReferences": {},
  "immutableReferences": {},
  "inputSourceName": "project/contracts/MockUSDT.sol",
  "buildInfoId": "solc-0_8_28-abe592c48470de95e6580ec342cce6ccc17a839a"
}