{
  "_format": "hh3-artifact-1",
  "contractName": "TokenEscrow",
  "sourceName": "contracts/TokenEscrow.sol",
  "abi": [
    {
      "inputs": [],
      "stateMutability": "nonpayable",
      "type": "constructor"
    },
    {
      "anonymous": false,
      "inputs": [
        {
          "indexed": true,
          "internalType": "string",
          "name": "adId",
          "type": "string"
        },
        {
          "indexed": true,
          "internalType": "address",
          "name": "seller",
          "type": "address"
        },
        {
          "indexed": true,
          "internalType": "address",
          "name": "token",
          "type": "address"
        },
        {
          "indexed": false,
          "internalType": "uint256",
          "name": "amount",
          "type": "uint256"
        }
      ],
      "name": "TokensLocked",
      "type": "event"
    },
    {
      "anonymous": false,
      "inputs": [
        {
          "indexed": true,
          "internalType": "string",
          "name": "adId",
          "type": "string"
        },
        {
          "indexed": true,
          "internalType": "address",
          "name": "seller",
          "type": "address"
        },
        {
          "indexed": true,
          "internalType": "address",
          "name": "buyer",
          "type": "address"
        },
        {
          "indexed": false,
          "internalType": "address",
          "name": "token",
          "type": "address"
        },
        {
          "indexed": false,
          "internalType": "uint256",
          "name": "amount",
          "type": "uint256"
        }
      ],
      "name": "TokensReleased",
      "type": "event"
    },
    {
      "inputs": [
        {
          "internalType": "string",
          "name": "",
          "type": "string"
        }
      ],
      "name": "adSeller",
      "outputs": [
        {
          "internalType": "address",
          "name": "",
          "type": "address"
        }
      ],
      "stateMutability": "view",
      "type": "function"
    },
    {
      "inputs": [
        {
          "internalType": "string",
          "name": "adId",
          "type": "string"
        },
        {
          "internalType": "address",
          "name": "seller",
          "type": "address"
        },
        {
          "internalType": "address",
          "name": "token",
          "type": "address"
        }
      ],
      "name": "getLockedAmount",
      "outputs": [
        {
          "internalType": "uint256",
          "name": "",
          "type": "uint256"
        }
      ],
      "stateMutability": "view",
      "type": "function"
    },
    {
      "inputs": [
        {
          "internalType": "string",
          "name": "adId",
          "type": "string"
        },
        {
          "internalType": "address",
          "name": "token",
          "type": "address"
        },
        {
          "internalType": "uint256",
          "name": "amount",
          "type": "uint256"
        }
      ],
      "name": "lockTokens",
      "outputs": [],
      "stateMutability": "nonpayable",
      "type": "function"
    },
    {
      "inputs": [
        {
          "internalType": "string",
          "name": "",
          "type": "string"
        },
        {
          "internalType": "address",
          "name": "",
          "type": "address"
        },
        {
          "internalType": "address",
          "name": "",
          "type": "address"
        }
      ],
      "name": "lockedByAd",
      "outputs": [
        {
          "internalType": "uint256",
          "name": "",
          "type": "uint256"
        }
      ],
      "stateMutability": "view",
      "type": "function"
    },
    {
      "inputs": [],
      "name": "owner",
      "outputs": [
        {
          "internalType": "address",
          "name": "",
          "type": "address"
        }
      ],
      "stateMutability": "view",
      "type": "function"
    },
    {
      "inputs": [
        {
          "internalType": "string",
          "name": "adId",
          "type": "string"
        },
        {
          "internalType": "address",
          "name": "buyer",
          "type": "address"
        },
        {
          "internalType": "address",
          "name": "token",
          "type": "address"
        },
        {
          "internalType": "uint256",
          "name": "amount",
          "type": "uint256"
        }
      ],
      "name": "releaseTokens",
      "outputs": [],
      "stateMutability": "nonpayable",
      "type": "function"
    }
  ],
  "bytecode": "0x6080604052348015600e575f5ffd5b505f80546001600160a01b031916331790556109b98061002d5f395ff3fe608060405234801561000f575f5ffd5b5060043610610060575f3560e01c806304cb1049146100645780638901e18f146100b75780638da5cb5b146100cc57806399bbe125146100f6578063b0bb590114610109578063f19319491461011c575b5f5ffd5b6100a46100723660046107bd565b825160208185018101805160018252928201958201959095209190945283525f91825260408083209093528152205481565b6040519081526020015b60405180910390f35b6100ca6100c5366004610817565b610150565b005b5f546100de906001600160a01b031681565b6040516001600160a01b0390911681526020016100ae565b6100a46101043660046107bd565b610373565b6100ca61011736600461086b565b6103bc565b6100de61012a3660046108cd565b80516020818301810180516002825292820191909301209152546001600160a01b031681565b5f81116101995760405162461bcd60e51b81526020600482015260126024820152710416d6f756e74206d757374206265203e20360741b60448201526064015b60405180910390fd5b5f8351116101e05760405162461bcd60e51b8152602060048201526014602482015273416449642063616e6e6f7420626520656d70747960601b6044820152606401610190565b6040516323b872dd60e01b8152336004820152306024820152604481018290526001600160a01b038316906323b872dd906064016020604051808303815f875af1158015610230573d5f5f3e3d5ffd5b505050506040513d601f19601f820116820180604052508101906102549190610907565b6102925760405162461bcd60e51b815260206004820152600f60248201526e151c985b9cd9995c8819985a5b1959608a1b6044820152606401610190565b806001846040516102a3919061092d565b9081526040805160209281900383019020335f9081529083528181206001600160a01b0387168252909252812080549091906102e0908490610957565b92505081905550336002846040516102f8919061092d565b90815260405190819003602001812080546001600160a01b039384166001600160a01b031990911617905590831690339061033490869061092d565b604051908190038120848252907fdc74695fcec3aeb371d59f9a019af5322c1aa18ca2f34146f117bf77ce0be88f9060200160405180910390a4505050565b5f600184604051610384919061092d565b90815260408051602092819003830190206001600160a01b039586165f90815290835281812094909516855292905250902054919050565b5f546001600160a01b0316331461040e5760405162461bcd60e51b81526020600482015260166024820152754f6e6c79206f776e65722063616e2072656c6561736560501b6044820152606401610190565b6001600160a01b03831661045c5760405162461bcd60e51b8152602060048201526015602482015274496e76616c6964206275796572206164647265737360581b6044820152606401610190565b5f81116104a05760405162461bcd60e51b81526020600482015260126024820152710416d6f756e74206d757374206265203e20360741b6044820152606401610190565b5f6002856040516104b1919061092d565b908152604051908190036020019020546001600160a01b03169050806105085760405162461bcd60e51b815260206004820152600c60248201526b1059081b9bdd08199bdd5b9960a21b6044820152606401610190565b81600186604051610519919061092d565b90815260408051602092819003830190206001600160a01b038581165f9081529184528282209088168252909252902054101561058e5760405162461bcd60e51b8152602060048201526013602482015272125b9cdd59999a58da595b9d081b1bd8dad959606a1b6044820152606401610190565b8160018660405161059f919061092d565b90815260408051602092819003830190206001600160a01b038581165f9081529184528282209088168252909252812080549091906105df908490610970565b909155505060405163a9059cbb60e01b81526001600160a01b0385811660048301526024820184905284169063a9059cbb906044016020604051808303815f875af1158015610630573d5f5f3e3d5ffd5b505050506040513d601f19601f820116820180604052508101906106549190610907565b6106915760405162461bcd60e51b815260206004820152600e60248201526d14995b19585cd94819985a5b195960921b6044820152606401610190565b836001600160a01b0316816001600160a01b0316866040516106b3919061092d565b604080519182900382206001600160a01b038816835260208301879052917f5e94cc387ba56f778c5659934efa65a57fa8fadd903a52f447eec032c249cb91910160405180910390a45050505050565b634e487b7160e01b5f52604160045260245ffd5b5f82601f830112610726575f5ffd5b813567ffffffffffffffff81111561074057610740610703565b604051601f8201601f19908116603f0116810167ffffffffffffffff8111828210171561076f5761076f610703565b604052818152838201602001851015610786575f5ffd5b816020850160208301375f918101602001919091529392505050565b80356001600160a01b03811681146107b8575f5ffd5b919050565b5f5f5f606084860312156107cf575f5ffd5b833567ffffffffffffffff8111156107e5575f5ffd5b6107f186828701610717565b935050610800602085016107a2565b915061080e604085016107a2565b90509250925092565b5f5f5f60608486031215610829575f5ffd5b833567ffffffffffffffff81111561083f575f5ffd5b61084b86828701610717565b93505061085a602085016107a2565b929592945050506040919091013590565b5f5f5f5f6080858703121561087e575f5ffd5b843567ffffffffffffffff811115610894575f5ffd5b6108a087828801610717565b9450506108af602086016107a2565b92506108bd604086016107a2565b9396929550929360600135925050565b5f602082840312156108dd575f5ffd5b813567ffffffffffffffff8111156108f3575f5ffd5b6108ff84828501610717565b949350505050565b5f60208284031215610917575f5ffd5b81518015158114610926575f5ffd5b9392505050565b5f82518060208501845e5f920191825250919050565b634e487b7160e01b5f52601160045260245ffd5b8082018082111561096a5761096a610943565b92915050565b8181038181111561096a5761096a61094356fea26469706673582212204e9e9928e17fa5a5ed5c59260c2582447bb48e9384f353ee185895951b2f147964736f6c634300081c0033",
  "linkReferences": {},
  "deployedLinkReferences": {},
  "immutableReferences": {},
  "inputSourceName": "project/contracts/TokenEscrow.sol",
  "buildInfoId": "solc-0_8_28-abe592c48470de95e6580ec342cce6ccc17a839a"
}