{
  "_format": "hh3-artifact-1",
  "contractName": "Certificate",
  "sourceName": "contracts/Certificate.sol",
  "abi": [
    {
      "anonymous": false,
      "inputs": [
        {
          "indexed": true,
          "internalType": "uint256",
          "name": "certId",
          "type": "uint256"
        },
        {
          "indexed": true,
          "internalType": "address",
          "name": "issuer",
          "type": "address"
        },
        {
          "indexed": true,
          "internalType": "address",
          "name": "recipient",
          "type": "address"
        },
        {
          "indexed": false,
          "internalType": "string",
          "name": "ipfsHash",
          "type": "string"
        },
        {
          "indexed": false,
          "internalType": "uint256",
          "name": "issuedAt",
          "type": "uint256"
        }
      ],
      "name": "CertificateIssued",
      "type": "event"
    },
    {
      "inputs": [],
      "name": "certCount",
      "outputs": [
        {
          "internalType": "uint256",
          "name": "",
          "type": "uint256"
        }
      ],
      "stateMutability": "view",
      "type": "function"
    },
    {
      "inputs": [
        {
          "internalType": "uint256",
          "name": "",
          "type": "uint256"
        }
      ],
      "name": "certificates",
      "outputs": [
        {
          "internalType": "address",
          "name": "issuer",
          "type": "address"
        },
        {
          "internalType": "address",
          "name": "recipient",
          "type": "address"
        },
        {
          "internalType": "string",
          "name": "ipfsHash",
          "type": "string"
        },
        {
          "internalType": "uint256",
          "name": "issuedAt",
          "type": "uint256"
        }
      ],
      "stateMutability": "view",
      "type": "function"
    },
    {
      "inputs": [
        {
          "internalType": "address",
          "name": "recipient",
          "type": "address"
        },
        {
          "internalType": "string",
          "name": "ipfsHash",
          "type": "string"
        }
      ],
      "name": "issueCertificate",
      "outputs": [
        {
          "internalType": "uint256",
          "name": "",
          "type": "uint256"
        }
      ],
      "stateMutability": "nonpayable",
      "type": "function"
    }
  ],
  "bytecode": "0x6080604052348015600e575f5ffd5b5061060a8061001c5f395ff3fe608060405234801561000f575f5ffd5b506004361061003f575f3560e01c8063663b3e2214610043578063bb721aab1461006f578063d4e207a214610090575b5f5ffd5b61005661005136600461032a565b610098565b6040516100669493929190610341565b60405180910390f35b61008261007d36600461039b565b610155565b604051908152602001610066565b6100825f5481565b600160208190525f91825260409091208054918101546002820180546001600160a01b039485169490921692916100ce90610426565b80601f01602080910402602001604051908101604052809291908181526020018280546100fa90610426565b80156101455780601f1061011c57610100808354040283529160200191610145565b820191905f5260205f20905b81548152906001019060200180831161012857829003601f168201915b5050505050908060030154905084565b5f6001600160a01b0384166101b15760405162461bcd60e51b815260206004820152601960248201527f496e76616c696420726563697069656e7420616464726573730000000000000060448201526064015b60405180910390fd5b816101f35760405162461bcd60e51b815260206004820152601260248201527112541194c81a185cda081c995c5d5a5c995960721b60448201526064016101a8565b5f805490806102018361045e565b91905055506040518060800160405280336001600160a01b03168152602001856001600160a01b0316815260200184848080601f0160208091040260200160405190810160405280939291908181526020018383808284375f92018290525093855250504260209384015250805481526001808352604091829020845181546001600160a01b03199081166001600160a01b0392831617835594860151928201805490951692169190911790925582015160028201906102c190826104e2565b5060608201518160030155905050836001600160a01b0316336001600160a01b03165f547ff677e82fac9d852bc5fc4e5f1c53e0d88e4c55767af3a60dcb0e1accb716ea6b8686426040516103189392919061059d565b60405180910390a4505f549392505050565b5f6020828403121561033a575f5ffd5b5035919050565b60018060a01b038516815260018060a01b0384166020820152608060408201525f8351806080840152806020860160a085015e5f60a0828501015260a0601f19601f83011684010191505082606083015295945050505050565b5f5f5f604084860312156103ad575f5ffd5b83356001600160a01b03811681146103c3575f5ffd5b9250602084013567ffffffffffffffff8111156103de575f5ffd5b8401601f810186136103ee575f5ffd5b803567ffffffffffffffff811115610404575f5ffd5b866020828401011115610415575f5ffd5b939660209190910195509293505050565b600181811c9082168061043a57607f821691505b60208210810361045857634e487b7160e01b5f52602260045260245ffd5b50919050565b5f6001820161047b57634e487b7160e01b5f52601160045260245ffd5b5060010190565b634e487b7160e01b5f52604160045260245ffd5b601f8211156104dd57805f5260205f20601f840160051c810160208510156104bb5750805b601f840160051c820191505b818110156104da575f81556001016104c7565b50505b505050565b815167ffffffffffffffff8111156104fc576104fc610482565b6105108161050a8454610426565b84610496565b6020601f821160018114610542575f831561052b5750848201515b5f19600385901b1c1916600184901b1784556104da565b5f84815260208120601f198516915b828110156105715787850151825560209485019460019092019101610551565b508482101561058e57868401515f19600387901b60f8161c191681555b50505050600190811b01905550565b60408152826040820152828460608301375f606084830101525f6060601f19601f860116830101905082602083015294935050505056fea2646970667358221220f697c3b10f29c3c7e58a36c8b9b39edf2d92833c5fe3c3ce3426edf99ecbc63564736f6c634300081c0033",
  "linkReferences": {},
  "deployedLinkReferences": {},
  "immutableReferences": {},
  "inputSourceName": "project/contracts/Certificate.sol",
  "buildInfoId": "solc-0_8_28-abe592c48470de95e6580ec342cce6ccc17a839a"
}