{
  "_format": "hh-sol-artifact-1",
  "contractName": "Certificate",
  "sourceName": "contracts/Certificate.sol",
  "abi": [
    {
      "anonymous": false,
      "inputs": [
        {
          "indexed": true,
          "internalType": "uint256",
          "name": "certId",
          "type": "uint256"
        },
        {
          "indexed": true,
          "internalType": "address",
          "name": "issuer",
          "type": "address"
        },
        {
          "indexed": true,
          "internalType": "address",
          "name": "recipient",
          "type": "address"
        },
        {
          "indexed": false,
          "internalType": "string",
          "name": "ipfsHash",
          "type": "string"
        },
        {
          "indexed": false,
          "internalType": "uint256",
          "name": "issuedAt",
          "type": "uint256"
        }
      ],
      "name": "CertificateIssued",
      "type": "event"
    },
    {
      "inputs": [],
      "name": "certCount",
      "outputs": [
        {
          "internalType": "uint256",
          "name": "",
          "type": "uint256"
        }
      ],
      "stateMutability": "view",
      "type": "function"
    },
    {
      "inputs": [
        {
          "internalType": "uint256",
          "name": "",
          "type": "uint256"
        }
      ],
      "name": "certificates",
      "outputs": [
        {
          "internalType": "address",
          "name": "issuer",
          "type": "address"
        },
        {
          "internalType": "address",
          "name": "recipient",
          "type": "address"
        },
        {
          "internalType": "string",
          "name": "ipfsHash",
          "type": "string"
        },
        {
          "internalType": "uint256",
          "name": "issuedAt",
          "type": "uint256"
        }
      ],
      "stateMutability": "view",
      "type": "function"
    },
    {
      "inputs": [
        {
          "internalType": "address",
          "name": "recipient",
          "type": "address"
        },
        {
          "internalType": "string",
          "name": "ipfsHash",
          "type": "string"
        }
      ],
      "name": "issueCertificate",
      "outputs": [
        {
          "internalType": "uint256",
          "name": "",
          "type": "uint256"
        }
      ],
      "stateMutability": "nonpayable",
      "type": "function"
    }
  ],
  "bytecode": "0x6080604052348015600f57600080fd5b506106468061001f6000396000f3fe608060405234801561001057600080fd5b50600436106100415760003560e01c8063663b3e2214610046578063bb721aab14610072578063d4e207a214610093575b600080fd5b610059610054366004610336565b61009c565b604051610069949392919061034f565b60405180910390f35b6100856100803660046103bf565b61015c565b604051908152602001610069565b61008560005481565b60016020819052600091825260409091208054918101546002820180546001600160a01b039485169490921692916100d390610452565b80601f01602080910402602001604051908101604052809291908181526020018280546100ff90610452565b801561014c5780601f106101215761010080835404028352916020019161014c565b820191906000526020600020905b81548152906001019060200180831161012f57829003601f168201915b5050505050908060030154905084565b60006001600160a01b0384166101b95760405162461bcd60e51b815260206004820152601960248201527f496e76616c696420726563697069656e7420616464726573730000000000000060448201526064015b60405180910390fd5b816101fb5760405162461bcd60e51b815260206004820152601260248201527112541194c81a185cda081c995c5d5a5c995960721b60448201526064016101b0565b60008054908061020a8361048c565b91905055506040518060800160405280336001600160a01b03168152602001856001600160a01b0316815260200184848080601f016020809104026020016040519081016040528093929190818152602001838380828437600092018290525093855250504260209384015250805481526001808352604091829020845181546001600160a01b03199081166001600160a01b0392831617835594860151928201805490951692169190911790925582015160028201906102cb9082610518565b5060608201518160030155905050836001600160a01b0316336001600160a01b03166000547ff677e82fac9d852bc5fc4e5f1c53e0d88e4c55767af3a60dcb0e1accb716ea6b868642604051610323939291906105d7565b60405180910390a4506000549392505050565b60006020828403121561034857600080fd5b5035919050565b6001600160a01b038581168252841660208201526080604082018190528351908201819052600090815b8181101561039657602081870181015160a0868401015201610379565b50600060a0828501015260a0601f19601f83011684010191505082606083015295945050505050565b6000806000604084860312156103d457600080fd5b83356001600160a01b03811681146103eb57600080fd5b9250602084013567ffffffffffffffff81111561040757600080fd5b8401601f8101861361041857600080fd5b803567ffffffffffffffff81111561042f57600080fd5b86602082840101111561044157600080fd5b939660209190910195509293505050565b600181811c9082168061046657607f821691505b60208210810361048657634e487b7160e01b600052602260045260246000fd5b50919050565b6000600182016104ac57634e487b7160e01b600052601160045260246000fd5b5060010190565b634e487b7160e01b600052604160045260246000fd5b601f82111561051357806000526020600020601f840160051c810160208510156104f05750805b601f840160051c820191505b8181101561051057600081556001016104fc565b50505b505050565b815167ffffffffffffffff811115610532576105326104b3565b610546816105408454610452565b846104c9565b6020601f82116001811461057a57600083156105625750848201515b600019600385901b1c1916600184901b178455610510565b600084815260208120601f198516915b828110156105aa578785015182556020948501946001909201910161058a565b50848210156105c85786840151600019600387901b60f8161c191681555b50505050600190811b01905550565b604081528260408201528284606083013760006060848301015260006060601f19601f860116830101905082602083015294935050505056fea26469706673582212203ab308d76c7b4f7dc6723729fd747dff146ff57dc15a05e25ed92c48cb9e93cf64736f6c634300081c0033",
  "linkReferences": {},
  "deployedLinkReferences": {}
}